:020000040800F2
:100000000000022065040008210400082304000801
:100010002504000827040008290400080000000047
:100020000000000000000000000000002B04000899
:100030002D040008000000002F040008310400080F
:10004000B5040008B5040008B5040008B5040008AC
:10005000B5040008B5040008B5040008B50400089C
:10006000B5040008B5040008B5040008B50400088C
:10007000B5040008B5040008B5040008B50400087C
:10008000B5040008B5040008B5040008B50400086C
:10009000B5040008B5040008B5040008B50400085C
:1000A000B5040008B5040008B5040008B50400084C
:1000B000B5040008B5040008B5040008B50400083C
:1000C000B5040008B5040008B5040008B50400082C
:1000D000B5040008B5040008B5040008B50400081C
:1000E000B5040008B5040008B5040008B50400080C
:1000F000B5040008B5040008B5040008B5040008FC
:10010000B5040008B5040008B5040008B5040008EB
:10011000B5040008B5040008B5040008B5040008DB
:10012000B5040008B5040008B5040008B5040008CB
:10013000B50400080000000000000000B50400083D
:10014000B5040008B5040008B5040008B5040008AB
:10015000B5040008B5040008B5040008B50400089B
:10016000B5040008B5040008B5040008B50400088B
:10017000B5040008B5040008B5040008000000003C
:1001800000000000B50400080000000000000000AE
:10019000B50400080000000000000000B5040008DD
:1001A000000000000000000000000000B50400088E
:1001B000B5040008B5040008B5040008B50400083B
:0401C000B50400087A
:1001C4000348044B834202D0034B03B118477047E2
:1001D4000400002004000020000000000548064B35
:1001E4001B1AD90F01EBA301491002D0034B03B131
:1001F400184770470400002004000020000000009D
:1002040010B5064C237843B9FFF7DAFF044B13B15A
:100214000448AFF300800123237010BD04000020C4
:10022400000000000005000808B5054B1BB1054996
:100234000548AFF30080BDE80840FFF7CFBF00BF1B
:1002440000000000080000200005000808B5244B49
:100254001A6B42F007021A631A6C42F001021A6424
:100264005A6C42F480425A641E4C00220D212046EE
:1002740000F03EF801220D21204600F051F81A4DFD
:1002840001220521284600F033F8012200212046EE
:1002940000F02EF801221146204600F029F8012230
:1002A4000021124800F024F801220421284600F01D
:1002B4001FF800F0A9F806E000F09CF801220521DF
:1002C400094800F023F8074B1B6913F4005FF3D0CF
:1002D40000F09AF800220521034800F017F8F2E72D
:1002E40000380240000802400000024000040240BE
:1002F400036849004FF0030C0CFA01FC23EA0C03D9
:10030400036003688A401343036070471AB10123F2
:100314008B4083617047103101238B4083617047A8
:10032400C36849004FF0030C0CFA01FC23EA0C03E8
:10033400C360C3688A401343C360704710B510B1EB
:1003440001282AD010BD01290FD0022919D0002973
:10035400F8D1254C002211462046FFF7D7FF012291
:1003640011462046FFF7D2FFECE71F4C0122002183
:100374002046FFF7CBFF002201212046FFF7C6FFEE
:10038400E0E7194C002211462046FFF7BFFF002288
:1003940001212046FFF7BAFFD4E701290ED0022934
:1003A40017D00029CED1002211461048FFF7AEFF26
:1003B400012204210E48FFF7A9FFC3E7012200210F
:1003C4000A48FFF7A3FF002204210948FFF79EFF14
:1003D400B8E7002211460548FFF798FF00220421E0
:1003E4000348FFF793FFADE7000802400004024012
:1003F4000000024008B500210846FFF79FFF0021D6
:100404000120FFF79BFF08BD08B502210020FFF77C
:1004140095FF02210120FFF791FF08BDFEE7FEE7EB
:10042400FEE7FEE7FEE770477047704708B500F047
:1004340001F808BD034A1168034B1B780B44136091
:10044400704700BF2000002000000020034AD2F8BB
:10045400883043F47003C2F88830704700ED00E040
:10046400DFF834D0FFF7F2FF0C480D490D4A0023A2
:1004740002E0D458C4500433C4188C42F9D30A4A55
:100484000A4C002301E013600432A242FBD300F0C3
:1004940011F8FFF7DBFE7047000002200000002087
:1004A400040000202005000804000020240000208F
:1004B400FEE7000070B50D4D0D4C641BA410002622
:1004C400A64209D10B4D0C4C00F018F8641BA41083
:1004D4000026A64205D170BD55F8043B9847013665
:1004E400EEE755F8043B98470136F2E71805000893
:1004F40018050008180500081C050008F8B500BF19
:10050400F8BC08BC9E467047F8B500BFF8BC08BCF0
:040514009E46704748
:040518002D020008A8
:04051C0005020008CC
:0405200001000000D6
:040000050800046586
:00000001FF
